:020000040800F2
:1080000060700020F5490108598900085B89000863
:108010005F89000863890008678900080000000084
:108020000000000000000000000000006B89000854
:108030006D890008000000006F8900087189000840
:108040000F4A01080F4A01080F4A01080F4A0108A8
:108050000F4A01080F4A01080F4A01080F4A010898
:108060000F4A01080F4A01080F4A01080F4A010888
:108070000F4A01080F4A01080F4A01080F4A010878
:108080000F4A01080F4A01080F4A01080F4A010868
:108090000F4A01080F4A01080F4A01080F4A010858
:1080A0000F4A01080F4A01080F4A01080F4A010848
:1080B0008B9A0008CF9A00081F9B00080F4A0108FE
:1080C0000F4A01080F4A01080F4A01080F4A010828
:1080D0000F4A0108358B00089F4901080DF9000877
:1080E0000F4A01080F4A01080F4A01080F4A010808
:1080F0000F4A01080F4A01080F4A01080F4A0108F8
:108100000F4A01083F1701080F4A01080F4A0108EA
:108110000F4A01080F4A01080F4A0108B5F9000883
:108120000F4A01080F4A01080F4A01080F4A0108C7
:108130000F4A01080F4A01080F4A01080F4A0108B7
:108140000F4A01080F4A01080F4A01080F4A0108A7
:108150000F4A01080F4A01080F4A01080F4A010897
:108160000F4A01080F4A01080F4A01080F4A010887
:108170000F4A01080F4A01080F4A01080F4A010877
:108180000F4A01080F4A010800F002F800F055F804
:108190000AA090E8000C82448344AAF10107DA4562
:1081A00001D100F04AF8AFF2090EBAE80F0013F05F
:1081B000010F18BFFB1A43F0010318479843010051
:1081C000B8430100103A24BF78C878C1FAD85207E2
:1081D00024BF30C830C144BF04680C607047000041
:1081E0000023002400250026103A28BF78C1FBD8C0
:1081F000520728BF30C148BF0B607047662913F093
:10820000968664290FF0E08675290FF0DD867829BF
:108210000FF01687732910F03283002070471FB5C6
:1082200013F07BFE10F042FB04000020002112F04E
:10823000A5FFE0601FBD10B510BD10F03FFC11465A
:10824000FFF7EDFF00F0C2F910F05DFC03B4FFF79B
:10825000F2FF03BC0CF02AFB30BF72B6704762B667
:10826000704780F308887047FE48006800F4E060BB
:10827000FD490843001DFB49086070470120FB4988
:1082800008700121F94881720120F8490872012122
:10829000F64841723C218181002202614261022044
:1082A000F34908704FF46161F148C162DA21417607
:1082B0005F2181764321C1766B21017745F6F77105
:1082C000C183012141750320E94908750121E8486E
:1082D000C1754FF461610165DA2180F83D105F21BD
:1082E00080F83E10432180F83F106B2180F8401049
:1082F00042F22C31A0F84210002180F839100321FD
:1083000080F83810012180F83B1041F23420D84920
:10831000486045F278600881704710B5002404E099
:108320000020D4490855601C84B2B4F5007FF7DB07
:10833000E8220021CF4809F084FA10BD10B50024CE
:1083400001224FF44831CB4809F02FFA00BF05E075
:10835000C848015DC8480155601CC4B2082CF7DB51
:1083600010BD10B500240020C44908700BE008F0CF
:10837000D7F918B90120C149087006E0C8200CF0EF
:1083800075FA601CC4B2032CF1DB00BFBB48007857
:1083900020B9BB480078401CB949087010BD10B521
:1083A000B648007828B1B44A121FB149AF480BF063
:1083B0008EFD10BD10B52DED0A8B052101200AF0B0
:1083C000DFFB08EE100AB8EE480A10EE100A13F0B0
:1083D00033FD41EC1C0B9FEDAB0B53EC102B13F05A
:1083E00035FA41EC1B0B9FEDA90B53EC102B13F04E
:1083F0002DFA41EC1A0B9FEDA70B53EC102B12F04A
:10840000CDFF41EC190B12F0DBFE08EE900AB2EE44
:10841000040A28EE800ABCEEC00A10EE100A964943
:10842000091FC870BDEC0A8B10BD10B52DED028B75
:1084300092B00020019099480078012803D112B031
:10844000BDEC028B10BD96480078052803DA0020A9
:1084500093490870F3E7934800784A284BD1914834
:108460004078532847D14A21BDF80420501C80B2DF
:10847000019002A881545321BDF80420501C80B201
:10848000019002A88154794890ED281BB0EE410A72
:10849000F0EE610A9FED841B53EC112B51EC100B95
:1084A00013F0D4F941EC180B13F03CF904462246C2
:1084B00001A902A804F059FD6C4890ED261BB0EE0E
:1084C000410AF0EE610A9FED781B53EC112B51EC41
:1084D000100B13F0BBF941EC180B13F023F9044611
:1084E000224601A902A804F040FDBDF80400C1B273
:1084F00002A800F0C4FA00BFA1E701B59DF8000092
:1085000013282DD00EDC10282ED006DC01281ED01A
:1085100002281FD003283BD11FE0112823D01228A6
:1085200036D10EE0302824D006DC142824D01528BB
:1085300025D020282CD107E0402823D0502827D14F
:1085400023E002F00FFC24E003F072F921E002F0D6
:10855000ABFF1EE007F0B7F91BE0FFF766FF18E07E
:1085600009F077FF15E014E09DF801000AF060FEC5
:108570000FE007F041F90CE0FFF7F3FE09E0FFF729
:108580000EFF06E0FFF770FE03E0FFF713FF00E0C9
:1085900000BF00BF08BD1CB5012110200CF0DEFD9E
:1085A0004020009001208DF804008DF80600032083
:1085B0008DF8050001208DF8070069463C480CF055
:1085C0002FFB40213A480CF0A9FB1CBD08B500BFA9
:1085D00038482449091F08604FF4A0600CF02AFABB
:1085E000A8200CF0E1F84FF4165000F0C3F94FF456
:1085F000E1300CF06AF94FF4165004F0C9FC2E4833
:1086000004F092F9FFF7C7FF42F2CF01632000F0B8
:10861000F5FF42F2CF01632000F095FF42F2CF0157
:1086200042F20F7000F0BBFF42F2CF01632007F06F
:1086300095F900F0C6FB00F007FC40F2712106201E
:1086400003F0E4F800F01CFF01F01BF8074803F00A
:108650009FFA074804F0EFF80748001F04F015F9E7
:108660002CE000000CED00E00000FA05A002002064
:1086700068010020240900201C0900201E000020A1
:10868000220000206666666666660A4000000000FA
:1086900000A0604000000000008000412100002098
:1086A00038000020240B00200000000000408F4014
:1086B00000100240008000086808002007F09CF9C4
:1086C000FFF74FFE01211A480DF0FCF901F0D0FD33
:1086D00000201849086002F07CFB00F065FE0AF0FB
:1086E000EDF91548007868B1144A154915480AF0A3
:1086F0006DFF48B9FFF7C2FD104A114911480BF050
:10870000E6FB01E0FFF7BAFD11E0002000F061FE9A
:10871000044614B120460AF092F9684607F0C2F9FF
:1087200010B10098FFF7E9FE0A200CF09FF8ECE783
:1087300000080040840242421E0000201809002068
:1087400068010020A00200200CB5002001900090DC
:108750007648006840F480307449086000BF734870
:10876000006800F4003000900198401C01900098CF
:1087700018B90198B0F5A04FF1D16C48006800F429
:10878000003010B10120009001E00020009000981E
:10879000012846D165484030006840F08050634968
:1087A000403108606248006840F440406049086019
:1087B0005E48083000685D49083108600846006876
:1087C00040F4004008600846006840F4A05008608B
:1087D0005848091F0860081F006840F08070091F92
:1087E000086000BF5148006800F000700028F9D010
:1087F00040F20570504908604C480830006820F08D
:1088000003004A49083108600846006840F0020049
:10881000086000BF45480830006800F00C000828D8
:10882000F8D10CBD10B54548006840F470004349CC
:1088300008603E48006840F001003C4908600020A4
:108840003A4908310860394800683D4908403749CD
:1088500008603C48091D0860081F006820F480205B
:10886000091F0860002031490C310860FFF76CFFD8
:108870004FF0006031498039086010BD70B50020AC
:108880000022022300240221284D08352D6805F01E
:108890000C0020B1042806D0082834D107E02A4D66
:1088A0002A4E356033E02A4D284E35602FE01F4DAB
:1088B0002D1D2D68C5F380541C4D2D1D2D6805F010
:1088C0003F0154B1224DB5FBF1F5184E361D366807
:1088D000C6F3881605FB06F209E01B4DB5FBF1F562
:1088E000124E361D3668C6F3881605FB06F20F4D8C
:1088F0002D1D2D68C5F301456D1C6B00B2FBF3F512
:10890000124E356003E0104D104E356000BF00BFC1
:10891000064D08352D68C5F303150E4E705D0B4DE1
:108920002D68C540094E356070BD0000003802401A
:108930000070004008544007003C024088ED00E011
:10894000FFFFF6FE103000240024F4002400002075
:1089500000127A0028000020704700BFFEE700BF29
:10896000FEE700BFFEE700BFFEE7704770477047B5
:108970007047000010B588B00446012108460CF08D
:10898000EDFB012110200CF043FC0722092179485E
:108990000CF0D1F907220A2176480CF0CCF94FF4FB
:1089A000C060069002208DF81C0003208DF81D0089
:1089B00000208DF81E0001208DF81F0006A96D48CB
:1089C0000CF02EF94FF48070069001208DF81C00F9
:1089D00003208DF81D0000208DF81E0001208DF869
:1089E0001F0006A963480CF01BF94FF400600690C5
:1089F00001208DF81C0003208DF81D0000208DF84B
:108A00001E0001208DF81F0006A95A480CF008F935
:108A100002940020ADF80C00ADF80E00ADF8100087
:108A2000ADF814000C20ADF8120002A952480CF069
:108A300050FD012150480CF0D4FD40214E480CF06F
:108A4000B8FE012240F225514B480CF080FE252053
:108A50008DF8040003208DF805008DF80600012034
:108A60008DF8070001A80BF0EAFF002043490860D9
:108A70004349C1F8AC024349087008B010BD70B555
:108A800005460E4601203D49086000240CE000BF69
:108A9000402139480CF080FE0028F9D0295D364885
:108AA0000CF0CAFD601CC4B2B442F0DB00BF402130
:108AB00031480CF071FE0028F9D0002032490870CE
:108AC0002E49086070BD2DE9F04107460D462E483D
:108AD00006780024002028700A200BF0C7FE2A48E0
:108AE000007886420FD176B100BF04E02748005DD0
:108AF0003855601CC4B2B442F8DB234800782870B3
:108B0000002021490870BDE8F08110B1012800D093
:108B100070471C49087020B90021184A0C321160B6
:108B200003E00121154A0C3211600021164A117030
:108B300000BFEDE710B540F225510F480CF042FEA2
:108B4000B8B1012112480CF0BDFF00201149087096
:108B500009480CF075FDC4B20B480078402808DACB
:108B60000A4809490978445407480078401C0649D6
:108B7000087010BD0000024000100140A0024042F9
:108B8000000040422100002038000020240B00207B
:108B9000000400408000002070B5044600224FF41D
:108BA0000071FE480CF0BCF800224FF40061FB4855
:108BB0000CF0B6F800251FE000228021F7480CF0E9
:108BC000AFF804F0800028B101221102F3480CF044
:108BD000A7F805E000224FF48071F0480CF0A0F8EF
:108BE00001228021ED480CF09BF801200BF0F6FDEE
:108BF0006006040E681CC5B2082DDDDB012251029F
:108C0000E6480CF08DF870BD70B5044600224FF4B4
:108C10000071E2480CF084F80122D102DF480CF028
:108C20007FF800251FE000228021DC480CF078F856
:108C300004F0800028B101221102D8480CF070F82D
:108C400005E000224FF48071D4480CF069F801224D
:108C50008021D2480CF064F801200BF0BFFD6006C3
:108C6000040E681CC5B2082DDDDB01225102CB4881
:108C70000CF056F870BD70B5044600224FF4007138
:108C8000C6480CF04DF80122D102C4480CF048F857
:108C900000251FE000228021C0480CF041F804F0BC
:108CA000800030B100224FF48071BC480CF038F8DD
:108CB00004E001221102B9480CF032F801228021AF
:108CC000B6480CF02DF801200BF088FD6006040E6C
:108CD000681CC5B2082DDDDB01225102AF480CF043
:108CE0001FF870BD10B564200BF0C0FD00224FF4DA
:108CF0000071AA480CF014F801221103A7480CF0E7
:108D00000FF800224FF48061A4480CF009F81420F9
:108D10000BF0ACFD01229102A0480CF001F81420E8
:108D20000BF0A4FDE220FFF737FF05200BF09EFDBE
:108D30002C20FFF731FF05200BF098FD2E20FFF7C8
:108D40002BFF05200BF092FD2F20FFF725FF0520BC
:108D50000BF08CFD2420FFF71FFF8120FFF71CFF85
:108D60002A20FFF719FFA220FFF716FFC820FFF700
:108D700013FFA020FFF710FF6020FFF70DFFAF20CB
:108D8000FFF70AFF0122510284480BF0C9FF10BD12
:108D90001CB5012102200CF0E1F94FF48040009055
:108DA00001208DF8040000208DF8060003208DF8C6
:108DB000050069467A480BF033FF012079490860C5
:108DC0001CBD1CB5012110200CF0C8F901208DF844
:108DD000040000208DF806004BF680700090012002
:108DE0008DF8070002208DF8050069466B480BF0EE
:108DF00017FF00208DF804008DF806004FF4804026
:108E0000009001208DF8070002208DF805006946CA
:108E100062480BF005FFFFF765FFFFF7B9FF1CBDC8
:108E200070B505460C4600BF05F1AF01C8B2FFF7AB
:108E3000B3FEC4F3031101F11000FFF7ADFE04F01F
:108E40000F00FFF7A9FE70BD70B500224FF400714E
:108E500052480BF065FF0122110350480BF060FFF0
:108E6000002415E004F1B001C8B2FFF795FE102010
:108E7000FFF792FE0020FFF78FFE002504E00020A0
:108E8000FFF7C2FE681CC5B2842DF8DB601CC4B2BB
:108E9000092CE7DB0122510240480BF041FF70BD75
:108EA000012040490860704700203E490860704733
:108EB0002DE9F0410646884614460027002500BFEC
:108EC00015E070194146FFF7ABFF00270BE01CB916
:108ED0000020FFF799FE04E0012C02D10020FFF7EB
:108EE000CAFE781CC7B2802FF1DB681CC5B2022D08
:108EF000E7DBBDE8F08170B5044600224FF4007155
:108F000026480BF00DFF00250FE00121681CFFF73C
:108F100087FF002605E02078FFF776FE641C701CB2
:108F2000C6B2802EF7DB681CC5B2082DEDDB01222E
:108F300051021A480BF0F4FE70BD2DE9F0470746C8
:108F4000894614461D4600224FF4007113480BF069
:108F5000E7FE0122110311480BF0E2FE00261AE0A1
:108F6000B8194946FFF75CFF4FF000080EE01DB945
:108F70002078FFF749FE04E0012D02D12078FFF7A9
:108F80007AFE641C08F1010000F0FF08B8F1100F30
:108F9000EDDB701CC6B2022EE2DB05E000100240E1
:108FA00000040240B882404201225102FA480BF00C
:108FB000B7FEBDE8F0872DE9F0470746894614461D
:108FC0001D4600224FF40071F3480BF0A9FE002665
:108FD0001AE0B8194946FFF723FF4FF000080EE0EA
:108FE0001DB92078FFF710FE04E0012D02D1207892
:108FF000FFF741FE641C08F1010000F0FF08B8F122
:10900000080FEDDB701CC6B2022EE2DB012251021A
:10901000E1480BF085FEBDE8F0872DE9F05F0746DB
:109020000D4614461E4607F1AF0000F0FF0900226E
:109030004FF40071D8480BF073FE05F00F00401E8E
:1090400000F0FF0AC5F3031000F1100B4846FFF7CC
:10905000A3FD5846FFF7A0FD5046FFF79DFD4FF0DA
:1090600000080CE01EB92078FFF7CEFD04E0012EC9
:1090700002D12078FFF7FFFD641C08F10108B8F168
:10908000060FEFD301225102C3480BF049FEBDE8A1
:10909000F09F70B5044600251DE004F0800028B163
:1090A0000122D103BC480BF03BFE05E000224FF447
:1090B0000041B9480BF034FE6006040E00224FF464
:1090C0000051B5480BF02CFE01225103B2480BF0C1
:1090D00027FE681CC5B2082DDFDB70BD70B500240B
:1090E00001225103AC480BF01BFE002518E00022C2
:1090F0004FF40051A8480BF013FE6006040E4FF425
:109100008041A5480BF0EEFD10B1601CC4B200E038
:10911000E4B201225103A0480BF002FE681CC5B264
:10912000082DE4DB204670BD2DE9F04780460D4652
:1091300016461F46DDF8209000224FF480519648D5
:109140000BF0EEFD0122510293480BF0E9FD0022E5
:109150004FF4005190480BF0E3FD0320FFF799FF17
:109160004046FFF796FF2846FFF793FF3046FFF78C
:1091700090FF002404E0FFF7B1FF3855601CC4B233
:109180004C45F8DB0122110383480BF0C9FDBDE813
:10919000F0872DE9F04F8DB083460E4615461F46E9
:1091A00000243A4631465846FFF782FEABE0285D80
:1091B000B02838DB285DF72835DC601C285CA12846
:1091C00031DB285DB0385E2110FB01F07349086087
:1091D000601C285C00F2AD20096808446F490860F3
:1091E000084600684001086008460068C0F3074868
:1091F00008460088C0F30729084690F800A0202000
:1092000005AB5246494600904046FFF78DFF3B466E
:1092100005AA31465846FFF790FEA01CC4B206F1DD
:109220001000C6B26FE0285DA12837DB285DA328B7
:1092300034DC601C285CA12830DB285DA1385E216D
:1092400010FB01F055490860601C285CA1380968D2
:109250000844524908600846006840010860084612
:109260000068C0F3074808460088C0F3072908468D
:1092700090F800A0202005AB524649460090404699
:10928000FFF752FF3B4605AA31465846FFF755FE09
:10929000A01CC4B206F11000C6B234E0285D20283C
:1092A0002FDB285D7E282CDC285D20383B490860B8
:1092B000084600680001086008460068384908440C
:1092C0003649086008460068C0F307480846008829
:1092D000C0F30729084690F800A0102001AB5246C1
:1092E000494600904046FFF71FFF3B4601AA314622
:1092F0005846FFF760FE601CC4B206F10800C6B213
:1093000001E0601CC4B2285D00283FF750AF0DB0EB
:10931000BDE8F08F2DE9FE4F82460E4615469B466E
:10932000002433E0285D20282EDB285D7E282BDCFE
:10933000285D20381949086008460068C0000860A8
:109340000846006817490844144908600846006840
:10935000C0F3074708460088C0F30728084690F87E
:109360000090082001AB4A46414600903846FFF77E
:10937000DBFE5B4601AA31465046FFF74EFE601CFD
:10938000C4B2B01DC6B201E0601CC4B2285D0028A2
:10939000C8DCBDE8FE8F0000001002407C00002009
:1093A00080CF0300C0BF03001CB5012110200BF0CB
:1093B000D5FE3C20009000208DF8040003208DF89D
:1093C000050001208DF8070069462C480BF028FCA9
:1093D0001CBD70B505460024042128480BF082FC12
:1093E00070B914200BF042FA00BF042123480BF09F
:1093F00079FC0028F9D014200BF038FA01243AE067
:1094000008211E480BF06EFC70B914200BF02EFAE8
:1094100000BF082119480BF065FC0028F9D0142082
:109420000BF024FA022426E0102114480BF05AFC19
:1094300070B914200BF01AFA00BF10210F480BF07E
:1094400051FC0028F9D014200BF010FA032412E08C
:1094500020210A480BF046FC68B914200BF006FAEC
:1094600000BF202105480BF03DFC0028F9D0142056
:109470000BF0FCF90424204670BD000000100240EF
:1094800000B585B0012108070BF0B1FE01200DF0F9
:1094900014FF00200DF010FE49F6991188424DD0BE
:1094A00001200BF0F8FC00BF41200BF0ADFC0028C0
:1094B000FAD04FF480700BF0EFFD01200BF007FEA7
:1094C0000DF03CF800200DF036F90DF065F80020A5
:1094D00002907F200390FF20049002A80DF0F5F881
:1094E00001208DF806001B208DF805000F208DF857
:1094F000040000208DF8070001A90DF081F90F206C
:109500008DF802000B208DF8010003208DF800007B
:1095100017208DF80300694600200DF00FFA0DF0BA
:10952000CBF849F6991100200DF0B9FD01200DF09E
:1095300002F949F6991100200DF0B1FD00200DF05F
:10954000BCFE05B000BD7FB505460C4601210220DA
:109550000BF04DFE0295ADF804400020ADF806007A
:10956000ADF80C0001A9FC480CF023FA01221146C9
:10957000F9480CF0BFFE0021F7480CF0A3FA1D20BB
:109580008DF8000001208DF8010003208DF8020005
:1095900001208DF8030068460BF051FA7FBD7FB5BE
:1095A00005460C46012104200BF021FE0295ADF882
:1095B00004400020ADF80600ADF80C0001A9E74812
:1095C0000CF0F7F901221146E4480CF093FE00215B
:1095D000E2480CF077FA1E208DF8000001208DF88B
:1095E000010003208DF8020001208DF80300684679
:1095F0000BF025FA0020DA4908707FBD7FB50546DB
:109600000C46012108460BF0F2FD0295ADF804402E
:109610000020ADF80600ADF80C0001A94FF0804025
:109620000CF0C7F90122114690070CF063FE0021EF
:109630004FF080400CF046FA1C208DF8000001200D
:109640008DF8010003208DF8020001208DF8030041
:1096500068460BF0F4F97FBD014601F0030028B91C
:109660006420B1FBF0F200FB121030B94FF4C87067
:10967000B1FBF0F200FB121008B901207047002086
:10968000FCE70020B749086008714871C87108728A
:1096900048720021B34A116151619161D161106238
:1096A00050620120114681F8280070473EB5AD4850
:1096B000D0E90420521C40F10000AA49C1E904206D
:1096C000084690F8280001280CD0D1E904414FF455
:1096D0006162002320460EF090FB00214A404B407F
:1096E0001A430DD1A048007E012809D103208DF82E
:1096F0000800029806F036FA02209A4981F82800FC
:1097000001A900200DF0E6F89DF804009549C87104
:109710009DF8050008729DF8060048726946002011
:109720000DF072F99DF8030000F5FA608D490860AC
:109730009DF8010008719DF8020048719DF8000035
:1097400088713EBD2DE9F04104468648C0794FF44A
:10975000616110FB01F08349097AC1EB011100EB53
:1097600081008049497A0844C71706467D48D0E9F8
:10977000043004EBC4027D4901EB8201096A5A1AE4
:1097800060F10000143A70F1000012D304EBC40140
:10979000764800EB810085692A4600233046394629
:1097A0000EF02BFB511F73F1000302D20120BDE824
:1097B000F0810020FBE7FEB50024ABE02046FFF778
:1097C000C1FF002864D00320684B143B684A6549F8
:1097D000CDE90004674803F027FB6348807C00EB79
:1097E000C001624800EB8100407D022802D141F2B5
:1097F000BF350BE05C48807C00EBC0015B4800EBB0
:109800008100407D032801D141F2CD3504EB841263
:10981000594B03EB820104EB841203EB8202101D0F
:109820002B46544A03F046F95448007860B104EBE3
:109830008412514B53F8221004EB841203EB820282
:10984000101D22460AF049FF4648006904EBC40295
:10985000464901EB820108624348007E78B14248E4
:10986000807E0C280BDB4048807E1F2807DC04200C
:109870008DF808008DF80940029806F073F9394810
:10988000006904EBC402394901EB8201C8613FE081
:1098900004EBC401354800EB8100C0690021314B65
:1098A000D3E90423801A994132D22E4904EBC40231
:1098B000D1E904302D4901EB8201C9695B1A60F1DD
:1098C00000003C229A1A70F1000021D32B48007846
:1098D000F0B12548007E98B12348807E0C280FDB2C
:1098E0002148807E20280BDC20460AF091FE38B10A
:1098F00004208DF808008DF80940029806F032F92E
:109900001848006904EBC402184901EB8201C861E0
:10991000601CC4B2154814380078A0423FF74EAF1F
:10992000FEBD38B500246CE0C4EBC40000EB0411AC
:109930000F48083010F83100012821D1C4EBC400D1
:1099400000EB04110A48083000EBC10040780228FF
:1099500016D1192515E00000000400400008004061
:109960008200002038010020180100207C01002026
:10997000A002002080080020A40B00201E00002070
:109980000A25B948D0E90420521B70F1000036D3F3
:10999000B548D0E90423681DC117801A99411AD22D
:1099A000B149D1E90401C4EBC40202EB0413AF4A8C
:1099B00002EBC302D2E90232C31A61EB0201C4EB2B
:1099C000C40000EB0412A94800EBC2008088181AFA
:1099D00071F1000113D38DF8014010208DF80000C3
:1099E000009806F07EF8A049D1E90401C4EBC40256
:1099F00002EB04139D4A02EBC302C2E90201601CA0
:109A0000C4B29A4808380078A0428DDC38BD10B541
:109A1000002434E0C4EBC40000EB0411934810F8B8
:109A20003100012829D1C4EBC40000EB04118F4898
:109A300000EBC10090ED242BB0EE420AF0EE620A7A
:109A4000C4EBC40000EB0411884800EBC10090EDAA
:109A5000202BB0EE421AF0EE621A53EC102B51ECB0
:109A6000110B11F0DFFBC4EBC40202EB04137F4ABD
:109A700002EBC30242F8800F5160601CC4B27B4805
:109A800008380078A042C5DC10BD08B50121880760
:109A90000CF047FC012815D175480078401C74492A
:109AA00008700846007803280CDB002008700120AD
:109AB0008DF80000009806F014F800214FF0804067
:109AC0000CF000F8012188070CF03CFC08BD08B53B
:109AD000012168480CF025FC01281BD1664800785C
:109AE000401C6549087008460078052812DB0020F4
:109AF00008706248007830B903208DF800000098A3
:109B000005F0EFFF02E001205D490870002159488F
:109B10000BF0D8FF012157480CF014FC08BD38B5F4
:109B2000012158480CF0FDFB01287DD1FFF7BEFD57
:109B3000FFF76DFFFFF7F5FE5348007E88B14A48F6
:109B4000407A0A2190FBF1F201FB120048B94E481D
:109B5000407B012805D002208DF80000009806F017
:109B600001F84148D0E9041000235940584001430E
:109B700011D03D480A22D0E9044120460EF03DF9BB
:109B800000214A404B401A4305D150208DF8000077
:109B9000009805F0A6FF3449D1E904010323584099
:109BA000084305D130208DF80000009805F099FF9A
:109BB000FFF701FE2C48D0E904100022514050402C
:109BC000014315D0284878220023D0E904412046DB
:109BD0000EF013F900214A404B401A4308D12A489D
:109BE000007E28B105208DF80000009805F0BAFF2E
:109BF0002648007800BB1C483C220023D0E90441E1
:109C000020460EF0FAF800214A404B401A4313D187
:109C10001548D0E9041000235940584001430BD0A7
:109C20001B480078032800E018E005DA14208DF8BE
:109C30000000009805F055FF13208DF800000098F3
:109C400005F04FFF20208DF80000009805F049FF37
:109C500012208DF80000009805F043FF012109480B
:109C60000CF070FB38BD000038010020A802002075
:109C7000830000200004004080000020210000201C
:109C80008100002000080040180100201E00002074
:109C90002200002070B502460C46FF25FF2309E094
:109CA00012F8010B80EA0501FC48405C80EA0305DC
:109CB000FB48435C201EA4F10106B4B2F0D143EA94
:109CC000052070BD2DE9F04389B007460E46904649
:109CD000202101A80EF005FB0024A1461D2E03DD66
:109CE000002009B0BDE8F0832046611C8CB201A9B8
:109CF00001F80080002507E07A5D2046611C8CB2E7
:109D000001A90A54681C85B2B542F5DB214601A8B9
:109D100001F0AEFD81462046611C8CB201A901F81C
:109D200000904FEA19222046611C8CB201A90A5406
:109D3000E1B201A8FEF7A3FE0120D2E710B5082189
:109D4000D848FEF79CFE012010BD10B50821D6486A
:109D5000FEF795FE012010BD7FB50646002000905D
:109D60000190029003908DF80060012406E0601ECF
:109D7000CE49085C0DF80400601CC4B2052CF6DD69
:109D80000621684601F074FD0546E8B28DF806002C
:109D9000280A8DF8070008216846FEF770FE0120AA
:109DA00004B070BD10B50821C148FEF768FE01205F
:109DB00010BD10B52DED048BBE48007801287DD173
:109DC000BD480078012867D1BB484078042862D19B
:109DD000BA480078801E81B2B748FFF75BFFB849E8
:109DE0000880B6480078401EB349095CB348007843
:109DF000801EB14A105C41EA0020B2490880B04898
:109E000000880988884245D110468078022841D1CF
:109E1000AD49087800EBD0714910A0EB4101E1B1E8
:109E200010460079D27840EA022000EE100AB8EE1F
:109E3000C00A10EE101A084611F0FEFF41EC190B93
:109E40009FEDA20B53EC102B11F0A8FA41EC180B6C
:109E500011F0B6F99F4908601CE097480079964ACE
:109E6000D27840EA022000EE100AB8EEC00A10EEE6
:109E7000101A084611F0E0FF41EC190B9FED930B0F
:109E800053EC102B11F08AFA41EC180B11F098F9F1
:109E90009149086000BF00BF0020884908708549CB
:109EA000087089480078401C87490870087800EBE2
:109EB000D0714910A0EB410121B100E004E0FFF7AF
:109EC00044FF01E0FFF73AFFBDEC048B10BD10B575
:109ED0000246784B18781B78012B24D1764B5B789F
:109EE000032B1AD1744B9B78022B03D0724B9B78B7
:109EF000042B11D1704B1B796F4CE47843EA042397
:109F000013806D4B9B78042B06D16B4B9B796A4C6D
:109F1000647943EA04230B8000BF00BF0023674C31
:109F20002370644C237010BD7CB505460020009062
:109F300000242846FFF710FF32200AF097FC0DE0BE
:109F4000694601A8FFF7C3FF00B108E0601CC4B276
:109F5000032C00DB03E032200AF088FCF0E700BFAE
:109F6000BDF800007CBD70B52DED0A8B82B00546B2
:109F70009FED5A0BB0EE409AF0EE609A00200190EF
:109F800000264C48007828704A48007800287CD089
:109F900049484078032873D147488078042823D162
:109FA000454840798DF80400434880798DF80500D4
:109FB0004148C0788DF806003F4800798DF80700C9
:109FC00001A802F072FCB0EE408A18EE100A11F0FF
:109FD00033FF41EC1A0B9FED430B53EC102B11F0A8
:109FE000DDF941EC190B4BE033488078082847D164
:109FF000314840798DF804002F4880798DF80500AC
:10A000002D48C0788DF806002B4800798DF80700A0
:10A01000002405E001A8005D40EA0626601CC4B2E9
:10A02000042CF7DB2448407A8DF804002248807A1B
:10A030008DF805002048C0798DF806001E48007A8A
:10A040008DF8070001A802F030FCB0EE408A18EE4F
:10A05000100A11F0F1FE41EC1A0B304611F0A6FB8C
:10A0600041EC1C0B9FED210B53EC102B11F0EEFB80
:10A0700041EC1B0B53EC1A2B11F0D4F841EC190BEB
:10A0800000200E4908700B490870B0EE490AF0EE46
:10A09000690A02B0BDEC0A8B70BD000022C0010845
:10A0A00022C10108840000208C00002094000020C0
:10A0B0009900002081000020240B0020380000209F
:10A0C000A2000020A4000020A10000200000000049
:10A0D00000002440AC000020A80000200000000088
:10A0E00000000000000000000020AC400000000064
:10A0F0000000F03F2DE9F8430746884691461C468C
:10A100000025002000900026012C05D13A460521AB
:10A110004748FFF7D7FD06E0022C04D13A46052157
:10A120004448FFF7CFFD32200AF0A0FB002512E0E3
:10A130006846FFF718FF88ED000B9DF8000010B18E
:10A1400046F0010608E0681CC5B2032D00DB03E001
:10A150001E200AF08BFBEBE700BF012C05D13A462D
:10A1600005213548FFF7AEFD06E0022C04D13A4642
:10A1700005213248FFF7A6FD32200AF077FB0025C3
:10A1800012E06846FFF7EFFE89ED000B9DF8000036
:10A1900010B146F0020608E0681CC5B2032D00DBD2
:10A1A00003E01E200AF062FBEBE700BF3046BDE88B
:10A1B000F883F8B505460E46002000902048077841
:10A1C0000078012831D11F480078052828D11D4882
:10A1D0004078032819D11B488078042814D11948E5
:10A1E00040798DF80000174880798DF801001548F6
:10A1F000C0788DF80200134800798DF80300684696
:10A2000002F053FB85ED000A00E000BF00BF002410
:10A2100004E01DF804003055601CC4B2042CF8DBC7
:10A22000002009490870064908703846F8BD00004A
:10A23000B0000020BA000020B5000020BF000020C0
:10A2400081000020240B00203800002010B50024DD
:10A2500004E00020FE490855601CC4B2FD48008897
:10A260008442F6DB0020FB49088001F0E1FA10BDD2
:10A270001CB5012110200AF071FF0220009001207E
:10A280008DF804008DF8060003208DF805000120EC
:10A290008DF807006946F0480AF0C2FC1CBD10B5F5
:10A2A0000120EE494870EEA00DF01EFE10BD022008
:10A2B000EA49487001208870002008710120C870A8
:10A2C000704770B5ADF5006D05464FF40061684606
:10A2D0000EF007F800260120E0494870A5F1310092
:10A2E00005281DD2DFE800F00D08031217006846AC
:10A2F00003F086FB064613E0684603F050FE064670
:10A300000EE0684603F087FF064609E0684603F062
:10A3100045FA064604E0684603F06AFA064600BFBE
:10A3200000BF00240DE000BFCE48008800F04000D0
:10A330000028F9D01DF80400CA49091D0880601CD6
:10A3400084B2B442EFDBFFF7B2FFC7480069C349EC
:10A35000886000F007FD0DF5006D70BD10B501209F
:10A36000BE494870C1A00DF0BFFDBF480069BB49A0
:10A37000886010BD70B5C2B04FF4827101A80DF0B5
:10A38000B0FF40F20115B548847C04EB8412C44B45
:10A3900053F8221004EB841203EB8202101D2B46AB
:10A3A00001AA02F019FCC6B201A9BEA00DF09CFDE5
:10A3B0000A200AF05BFA1A21AA480BF03DF9AA48D4
:10A3C0000069A649886042B070BD10B50120A3495C
:10A3D0004870BAA00DF088FD10BD10B58CB09F4834
:10A3E0008479082C00DB002404EBC402B64800EB9F
:10A3F0008201242203A80DF042FF012097494870F2
:10A40000BDF816009DF81410CDE900109DF813302A
:10A410009DF812209DF81110ACA00DF065FD92483A
:10A4200000698E4988600CB010BD10B501208B49C1
:10A430004870B1A00DF058FD10BD10B5012087493E
:10A440004870B1A00DF050FD10BD10B5012083493A
:10A450004870B1A00DF048FD10BD10B501207F4936
:10A460004870B5A00DF040FD10BD10B501207B492E
:10A470004870B5A00DF038FD10BD10B5012077492A
:10A480004870B4A00DF030FD10BD10B50120734927
:10A490004870B3A00DF028FD10BD10B501206F4924
:10A4A0004870B2A00DF020FD10BD10B501206B4921
:10A4B0004870B1A00DF018FD10BD10B5012067491E
:10A4C0004870B0A00DF010FD10BD10B5012063491B
:10A4D0004870AEA00DF008FD10BD10B501205F4919
:10A4E0004870ADA00DF000FD10BD10B501205B4916
:10A4F0004870ABA00DF0F8FC10BD10B557480078BF
:10A500000C284ED009DC0C2866D2DFE800F02326A8
:10A51000292C2F35383B3E414447322851D00CDCA2
:10A52000202847D004DC0D283ED00E2854D13EE030
:10A53000302842D031284FD144E0352844D004DCC3
:10A5400033283DD0342847D13DE0372841D0FF287B
:10A5500042D10EE0FFF7C9FF3FE0FFF7C6FF3CE046
:10A56000FFF7BBFF39E0FFF7B0FF36E0FFF7A5FFCD
:10A5700033E0FFF79AFF30E0FFF78FFF2DE0FFF7A2
:10A5800084FF2AE0FFF779FF27E0FFF76EFF24E062
:10A59000FFF763FF21E0FFF758FF1EE0FFF74DFFD5
:10A5A0001BE0FFF742FF18E0FFF717FF15E0FFF78A
:10A5B0000CFF12E0FFF7DEFE0FE0FFF7CFFE0CE02E
:10A5C00000BF00BF00BF00BF24490878FFF779FE35
:10A5D00003E0FFF764FE00E000BF00BF10BD0020F5
:10A5E0001E494870087132204871704710B51B48E9
:10A5F000407B68B909201949087001211748417347
:10A60000FFF7EDFF01211548C173FFF776FF71E1F8
:10A610001248407B012817D11048407820B9FFF735
:10A62000DEFFFFF76AFF65E10C48407802280CD195
:10A630000A488078012809D108480078092806D1FD
:10A640000648C07B0128AFE04BE113E1F5E0BAE03A
:10A65000FC250020FC000020001002401801002012
:10A660002B2B2B00004400403801002041542B517B
:10A67000494F50454E3D312C302C22544350222C12
:10A68000223131352E3233362E3135332E313730BB
:10A69000222C34383530302C302C320D0A0000009A
:10A6A000A40B002041542B514953454E4445583D7D
:10A6B000302C222573220D0A0000000041542B4348
:10A6C000434C4B3F0D0A00007C01002041542B51AC
:10A6D000494F50454E3D312C302C22544350222CB2
:10A6E0002225752E25752E25752E2575222C25756E
:10A6F0002C302C310D0A000041542B514941435458
:10A700003D310D0A0000000041542B5149444541A0
:10A7100043543D310D0A000041542B5149435347E6
:10A72000503D312C312C22434D4E4554222C2222B7
:10A730002C22222C300D0A0041542B5149434C4FFE
:10A7400053453D300D0A000041542B434F50533FB9
:10A750000D0A000041542B43475245473F0D0A0064
:10A7600041542B435245473F0D0A000041542B43AF
:10A7700050494E3F0D0A000041542B43545A553D59
:10A78000310D0A004154490D0A00000041542B4389
:10A7900053510D0A00000000415445300D0A0000DD
:10A7A00041540D0A0000000007D13020F74908701D
:10A7B00000204870FFF7A1FE9CE00221F34841739E
:10A7C0000121817396E0F1480078302811D1EF48DB
:10A7D000C078002807DC3120EC490870FFF7FFFE45
:10A7E000FFF78BFE86E0E948C078401EE749C87055
:10A7F00080E0E6480078312807D0E4480078342823
:10A8000003D0E2480078352808D13620DF490870A7
:10A81000FFF7E5FE0120DD4948706BE0DB4800787A
:10A82000372867D10920D9490870FFF7D8FE0221DF
:10A83000D648C173FFF761FE5CE0D44880780028F9
:10A8400058D1D2484079D149097988420CDBCF48A8
:10A85000C078002802DCFFF750FE4BE0CB48C07800
:10A86000401ECA49C87045E00221C8484173002112
:10A8700081733FE0C548407801283BD1C348007848
:10A88000302816D1C248D0E90431C0488068181A6F
:10A8900061F10001143871F100012BD30920BB498B
:10A8A0000870FFF79CFE0221B848C173FFF725FE30
:10A8B00020E0B648007836281CD1B548D0E90431EC
:10A8C000B24880681A1A61F100000A3A70F100007B
:10A8D00010D33720AD490870FFF781FEFFF70DFE5A
:10A8E00008E0AA48407B022804D1A848807B0128C0
:10A8F00000D000BF10BD10B50221A448C1730920CB
:10A90000A249087000204870FFF7F7FD10BD70B530
:10A910009E48407B80B909209C49087001219B48D2
:10A920004173FFF75CFE0A2098494871012197485E
:10A93000C173FFF7E2FDFFE09448407B012874D12A
:10A940009248407820B9FFF74AFEFFF7D6FDF3E0C2
:10A950008E48407802287CD18C488078012853D1D9
:10A960008A480078092811D18848C07B012807D17E
:10A970000D208649087000204870FFF7BEFDDBE01F
:10A9800002218248417301218173D5E07F4800781C
:10A990000D2825D101217D48807C00EBC0027D4837
:10A9A00000EB820001717C48007888B1774B9B7C7A
:10A9B00003EB8313794D05EB8302744B9B7C03EB14
:10A9C000831305EB8303191D704B987C09F02FFE50
:10A9D00020206E49087000204870FFF78EFDABE024
:10A9E0006A480078202808D169480069674988606A
:10A9F00021200870012048709EE0644800782128DA
:10AA000099D1FFF778FF97E060488078002892D1CD
:10AA10005E4840795D49097988420EDB5B48C07821
:10AA2000002804DCFFF769FD86E07CE011E0574870
:10AA3000C078401E5549C8707EE0FFF75CFF0221D8
:10AA40005248807C00EBC002524800EB820001714A
:10AA500072E04E48407801286ED14C4800780D28AD
:10AA600018D14B48D0E90431484880681B1A61F17D
:10AA7000000114229A1A71F100015DD3FFF73BFF28
:10AA800002214248807C00EBC002424800EB820079
:10AA9000017151E03D48007821284DD13B48807C30
:10AAA00000EBC0013B4800EB8100407801282BD12E
:10AAB0003748D0E90431354880681A1A61F100013D
:10AAC0000A3A71F1000137D3304A927C02EB8212CC
:10AAD000324B53F822102D4A927C02EB821203EB88
:10AAE0008202101D0423032201F061FF0446002CA2
:10AAF00007DD20202549087000204870FFF7FDFC85
:10AB00001AE0FFF7F8FE17E02148D0E904301F49AA
:10AB10008968591A60F10000491E70F100000BD3DA
:10AB2000FFF7E9FE08E01948407B022804D11748E6
:10AB3000807B012800D000BF70BD10B51348407B5A
:10AB400050B90E2011490870FFF749FDFFF7D5FCF9
:10AB500001210E48417348E00C48407B01283BD15D
:10AB60000A48407820B9FFF73AFDFFF7C6FC3CE001
:10AB700006484078022838D10448807801280FD14F
:10AB8000022102484173012181732EE01801002047
:10AB9000380100207C0100201E000020A40B0020B2
:10ABA000FE48807808BBFD484079FC490979884215
:10ABB0000CDBFA48C078002802DCFFF79EFC14E0AA
:10ABC000F648C078401EF549C8700EE00221F348EF
:10ABD00041730021817308E0F048407B022804D1D2
:10ABE000EE48807B012800D000BF10BD10B5EB48B7
:10ABF000407B50B90320E9490870FFF7F0FCFFF7EC
:10AC00007CFC0121E54841733EE0E448407B01289B
:10AC100031D1E248407820B9FFF7E1FCFFF76DFC45
:10AC200032E0DE48407802282ED1DC4880780128C6
:10AC300005D10221D94841730121817324E0D7480D
:10AC4000807808BBD5484079D449097988420CDB23
:10AC5000D248C078002802DCFFF74FFC14E0CF4850
:10AC6000C078401ECD49C8700EE00221CB48417328
:10AC70000021817308E0C948407B022804D1C748FD
:10AC8000807B012800D000BF10BD10B5C348407BB9
:10AC900050B90120C1490870FFF7A1FCFFF72DFC56
:10ACA0000121BE4841735CE0BC48407B012842D191
:10ACB000BA48407820B9FFF792FCFFF71EFC50E03D
:10ACC000B648407802284CD1B4488078012816D183
:10ACD000B24800780C2808D10120B049087602213A
:10ACE000AE484173012181733BE0AC480078401CC1
:10ACF000AA490870FFF773FCFFF7FFFB31E0A74894
:10AD0000807870BBA5484079A449097988420CDB5A
:10AD1000A248C078002802DCFFF7EFFB21E09F4843
:10AD2000C078401E9D49C8701BE002219B484173BA
:10AD30000021817315E09948407B022811D1974882
:10AD4000807B01280DD09548807B50B99348407E88
:10AD5000012806DC00F05CF89048407E401C8F49DA
:10AD6000487610BD08B58D48407B18B18B48407BB4
:10AD7000022813D1684604F0D5FE01280ED19DF8B3
:10AD80000000864908730021844841739DF8010042
:10AD9000824988719DF80110804881747F48007B4A
:10ADA000062813D2DFE800F0120306090C0FFFF7A4
:10ADB0006CFF0CE0FFF71AFF09E0FFF7BEFE06E0AC
:10ADC000FFF7A5FD03E0FFF711FC00E000BF00BFA7
:10ADD00008BD10B501207149087300216F48417307
:10ADE0000174012181730021C17301206B49087036
:10ADF00000204870087132204871012088700020BE
:10AE0000C8708876C87608764876FFF7ABFF10BD25
:10AE100010B5012062490860322009F027FD0020AA
:10AE20006049C1F884020A2009F020FD5B48407E99
:10AE3000401CC4B2FFF7CDFF5848447610BD08B59A
:10AE400012208DF80000009804F04BFE08BD02208F
:10AE5000524948700020887008460079401C0871EB
:10AE6000084640790979884213DB4C4800790A2862
:10AE700003DC01204949C8700EE0484800793228B7
:10AE800003DC05204549C87006E064204349C870CA
:10AE900002E000204149C870704710B542A1434804
:10AEA0000DF096F9044614B9FFF7D1FF01E0FFF762
:10AEB000FEF9FFF7CBF9FFF755FF10BD2DE9F0477D
:10AEC000002600270025A94639A138480DF080F951
:10AED0008046B8F1000F02D1FFF7B9FF36E0FFF767
:10AEE000E6F900242AE03148005D30281ADB2F48BB
:10AEF000005D392816DC4FF0010945B92B48005D8B
:10AF0000303806EB860100EB4100C6B214E0012D9B
:10AF100012D12648005D303807EB870100EB410075
:10AF2000C7B209E0B9F1000F01D0681CC5B2012D0C
:10AF300000DD07E04FF00009601CC4B21E48008825
:10AF40008442D0DB00BF15488676C776FFF77EF9CE
:10AF5000FFF708FFBDE8F08710B518A113480DF002
:10AF600037F9044614B9FFF772FF01E0FFF79FF9C4
:10AF7000FFF76CF9FFF7F6FE10BD70B513A10B4893
:10AF80000DF026F9044614A108480DF021F90546F4
:10AF90001CB915B9FFF75BFF26E023E0180100207C
:10AFA00084024242000042424F4B0000FC25002038
:10AFB0002B4353513A000000FC0000202B43504922
:10AFC0004E3A205245414459000000002B4352455F
:10AFD000473A20302C3100002B435245473A20306D
:10AFE0002C350000FFF763F9FFF730F9FFF7BAFEE1
:10AFF00070BD70B5F9A1FC480DF0EAF80446FBA15C
:10B00000F9480DF0E5F805461CB915B9FFF71FFF23
:10B0100001E0FFF74CF9FFF719F9FFF7A3FE70BD48
:10B0200010B5AFF27C01F0480DF0D2F8044614B927
:10B03000FFF70DFF01E0FFF73AF9FFF707F9FFF718
:10B0400091FE10BD10B5AFF2A001E7480DF0C0F8B9
:10B05000044614B9FFF7FBFE01E0FFF728F9FFF7FC
:10B06000F5F8FFF77FFE10BD10B5AFF2C401DE4862
:10B070000DF0AEF8044614B9FFF7E9FE04E0012034
:10B08000DD490876FFF713F9FFF7E0F8FFF76AFEEE
:10B0900010BD10B5FFF70BF9FFF7D8F8FFF762FE08
:10B0A00010BD2DE9F04F91B000200F900025002633
:10B0B0008046814600278246834600240E90CFA119
:10B0C000C9480DF085F81090109830B91120CD497D
:10B0D00081F82800FFF7BBFEE2E01020C94981F8A3
:10B0E0002800FFF7E4F800246FE00F98A0B9BE48ED
:10B0F000005D302867DBBC48005D392863DC012037
:10B100000F9001250E90B848005D303806EB86019F
:10B1100000EB4100C6B256E0B348005D302849DB81
:10B12000B148005D392845DC01200E90072D3FD243
:10B13000DFE805F03E040D17212A3400AA48005D1F
:10B14000303806EB860100EB4100C6B231E0A6487C
:10B15000005D303808EB880100EB410000F0FF088B
:10B1600027E0A148005D303809EB890100EB410080
:10B1700000F0FF091DE09C48005D303807EB8701B7
:10B1800000EB4100C7B214E09748005D30380AEB8D
:10B190008A0100EB410000F0FF0A0AE09248005DDE
:10B1A00030380BEB8B0100EB410000F0FF0B00E0AF
:10B1B00000BF08E00E9830B1681CC5B2062D00DD56
:10B1C00007E000200E90601CC4B28F4800888442C3
:10B1D0008BDB00BF02968DF80C808DF80D908DF8FA
:10B1E0000F708DF810A08DF811B002A800F009FCC6
:10B1F00001200CF062F8082F4FDA9DF80F008DF84F
:10B2000000009DF810008DF801009DF811008DF8E8
:10B2100002009DF80F000C2801DB402000E0002018
:10B220008DF80300694600200BF0EAFA01A900201E
:10B230000BF0EAFB9DF807000299884219D19DF8AE
:10B2400005009DF80C10884201D0012000E000208C
:10B250009DF806109DF80D20914201D0012100E0DB
:10B260000021084328B99DF804009DF80E1088427B
:10B2700013D00298C0B28DF807009DF80C008DF82D
:10B2800005009DF80D008DF806009DF80E008DF864
:10B29000040001A900200BF051FB00200CF00DF878
:10B2A000FEF7D4FFFFF75EFD11B0BDE8F08F10B5DB
:10B2B00056A14D480CF08CFF04465CB957A14A4892
:10B2C0000CF086FF044614B9FFF7C1FD0DE0FEF750
:10B2D000EEFF0AE053A144480CF07AFF044614B98B
:10B2E000FEF7E5FF01E0FFF7B2FDFEF7AFFFFFF766
:10B2F00039FD10BD10B5AFF250313B480CF068FF7E
:10B30000044614B9FFF7A3FD01E0FEF7D0FFFEF7F6
:10B310009DFFFFF727FD10BD2DE9F041ADF5806DD4
:10B32000002600274FF4806168460CF0DAFFB04633
:10B330003EA12D480CF04CFF0546FEF7B8FF002D4E
:10B340003BD0002435E0E6B9052C30DB601F2649F0
:10B35000085C2B282BD1201F085C512827D1E01E28
:10B36000085C492823D1A01E085C55281FD1601E07
:10B37000085C52281BD10846005D432817D10126DE
:10B3800015E067B9012C12DB601E1749085C0D2817
:10B390000DD10846005D0A2809D1012707E01248AF
:10B3A000025D4046411C01F0FF080DF80020601CC2
:10B3B000C4B2154800888442C5DB0DF5806DBDE838
:10B3C000F08110B51B48007838B1FF220E48018883
:10B3D000054800F083FA044655E02DE02B43475220
:10B3E00045473A20302C3100FC2500202B434752A2
:10B3F00045473A20302C3500180100202B43434CA0
:10B400004B3A000038010020FC0000202B51494F2E
:10B4100050454E3A20302C3000000000434F4E4E35
:10B4200045435400636C6F73656400002B514955AC
:10B4300052430000200000200022CE480188CE4860
:10B4400000F04CFA04462CB93520CC490870002095
:10B45000487018E0012C05D13120C849087000203F
:10B46000487010E0022C09D10221C34802F05FF9B4
:10B470003420C24908700020487004E0032C02D137
:10B480000120BF490870FE2C03D0BE480069BB49AB
:10B490008860FEF7DBFEFFF765FC10BD10B5FEF718
:10B4A00006FFFEF7D3FE10BD10B5B44800780D2896
:10B4B00049D00ADC0D285ED2DFE800F05D262C2999
:10B4C0002E3336392F303C3F4200332843D00EDC38
:10B4D000302839D006DC0E2839D020283AD021284F
:10B4E00049D13FE0312838D0322844D134E03628E1
:10B4F0003BD004DC342831D035283CD12FE037282C
:10B5000036D0FF2837D106E0FFF7C7FC34E0FFF75D
:10B51000D5FC31E000BF00BF00BF00BFFFF7B9FDA1
:10B520002AE0FFF719FD27E0FFF727FD24E0FFF7EA
:10B5300060FD21E0FFF774FD1EE0FFF783FD1BE0D7
:10B54000FFF792FD18E000BFFFF7B1FE14E0FFF730
:10B55000A8FD11E000BF00BF00BF00BF00BFFFF7A4
:10B56000C9FE09E0FFF7D8FE06E0FFF72AFF03E077
:10B57000FFF794FF00E000BF00BF10BD70B50446A8
:10B58000FF2581A00CF0B0FC642009F06FF9214682
:10B5900081A00CF0A9FC642009F068F91A217F4809
:10B5A0000AF04AF800BF40217C480AF0F5F800286C
:10B5B000F9D0642009F05AF979A16F480CF008FE1F
:10B5C0007949086008E076A16B480CF001FE7649E5
:10B5D00008600A2009F04AF9734800680028F2D090
:10B5E000642009F043F9FEF731FE70A00CF07CFCFA
:10B5F000C82009F03BF971A15F480CF0E9FD6A49E8
:10B6000008601FE069A00CF06FFCC82009F02EF95B
:10B610006AA159480CF0DCFD634908606AA16248E0
:10B6200000680CF0D5FD6049086067A15E480068BD
:10B63000401C0CF0CDFD5C4908600846006840786D
:10B640003038C5B2002DDDD1FEF700FE70BD70B5FB
:10B650000446FF251D204949C8760846007E01287A
:10B6600000D070BD59A00CF03FFC4FF4FA7009F007
:10B67000FDF82146AFF6D4700CF036FC0A2009F034
:10B68000F5F81A21454809F0D7FF642009F0EEF8D3
:10B69000AFF65C700CF028FC0A2009F0E7F8FEF722
:10B6A000D5FD00BFDDE730B5C1B0002040904FF4BC
:10B6B000807168460CF015FE0024002512E02E482B
:10B6C000025D4FA140A80CF01BFC9DF8002128460C
:10B6D0006D1C0DF800209DF8012128466D1C0DF809
:10B6E0000020641C322CEADB00200DF805006846BF
:10B6F000FFF7ADFFFEF7AAFD41B030BD2DE9F041E7
:10B70000ADF5027D06460F464FF4007102A80CF01D
:10B71000E8FD00200190002400254FF0FF0800BF45
:10B7200010E0325D36A101A80CF0EAFB9DF8042080
:10B7300028466D1C02A90A549DF8052028466D1C58
:10B740000A54641CBC42ECD3002002A948552E4880
:10B750000CF0CAFB0A2009F089F81A210F4809F0F9
:10B760006BFF0A2009F082F8FEF770FD0DF5027DEF
:10B77000BDE8F081FC000020FC250020180100201D
:10B78000200000203801002041542B514953454EE0
:10B79000443D300D0A0000002573000000440040C5
:10B7A00053454E44204F4B00C400002041542B51C0
:10B7B0004953454E443D302C300D0A002B5149531E
:10B7C000454E443A000000002C00000041542B512B
:10B7D000494F50454E3D312C302C22544350222CA1
:10B7E000223131352E3233362E3135332E3137304A
:10B7F000222C34383530302C302C310D0A0000002A
:10B800002530327800000000A4A6000870B5054677
:10B810000C4645F255500AF071FE28460AF071FEBA
:10B8200020460AF071FE0AF072FE0AF075FE70BD45
:10B8300010B50AF06CFE10BD30B502460B46002074
:10B84000002112E0555C684008240BE000F0800500
:10B8500025B14506280E80F0E50001E04506280EDA
:10B86000651EECB2002CF1DC491C9942EAD330BDD4
:10B8700070B502460B464FF6FF70002110E0565C93
:10B880007040002408E000F00105401015B14AF2B4
:10B8900001067040661CB4B2082CF4DB4E1CB1B239
:10B8A0009942ECDB70BD30B502460B464FF0FF31DC
:10B8B0000FE012F8010B4140002408E001F0010004
:10B8C0004042FE4D284080EA5101601CC4B2082C61
:10B8D000F4DB581E031EECDAC84330BDF0B5044655
:10B8E0000D461746052D01D20020F0BDFF2F07D0D1
:10B8F00020784A2802D16078532801D0FE20F4E74E
:10B90000A81E81B22046FFF7B3FF0646F1B2A81E7B
:10B91000205C814204D1681E205CB0EB162F01D060
:10B920000020E2E7FF2F01D0A078DEE70120DCE76E
:10B930000146002204E0501CC2B2A1F10A00C1B2CB
:10B940000A29F8DA100741EA1060704730B501465D
:10B9500000200122012313E0022B03DB4FF6FF74CA
:10B9600004EA02120A2491FBF4F504FB151404FB0B
:10B970000204A0B20A2491FBF4F4A1B25C1CA3B2AD
:10B980000029E9DC30BD10B5014600200122012369
:10B990000AE0022B02D302EB8204620001F00F04E2
:10B9A00004FB020009095B1C0029F2D110BD70B52F
:10B9B00003460020012901D0022903D101F10C0422
:10B9C000E1B25B1E4C1C04EB4404052594FBF5F529
:10B9D000541C022606FB01442C441C4404EB930433
:10B9E0006425B3FBF5F5641B4FF4C875B3FBF5F59F
:10B9F0002C440725B4FBF5F605FB164000B90720DB
:10BA000070BD30B5044600252079012811D0207979
:10BA100003280ED0207905280BD02079072808D0DC
:10BA20002079082805D020790A2802D020790C280E
:10BA300001D11F2526E02079042808D02079062886
:10BA400005D02079092802D020790B2801D11E25A4
:10BA500018E02079022815D14FF4C8712068B0FB96
:10BA6000F1F201FB120050B1207800F0030040B960
:10BA700064212068B0FBF1F201FB120008B11D2522
:10BA800000E01C25E0790830E071E079182813DB2C
:10BA9000E0791838E0716079401C60716079A842E3
:10BAA0000ADD012060712079401C207120790C286A
:10BAB00002DD2068401C2060627921792068FFF750
:10BAC00076FFA07130BD012101709FED7D0B80EDEF
:10BAD000020B9FED7D0B80ED040B9FED790B80ED4C
:10BAE000160B9FED770B80ED0A0B9FED750B80ED2C
:10BAF000100B9FED730B80ED180B9FED750B80ED18
:10BB00000C0B42F2107101879FED730B80ED060B59
:10BB10009FED730B80ED120B9FED690B80ED080B11
:10BB20009FED670B80ED140B0A2180F868107047B9
:10BB30009FED630B80ED000B9FED610B80ED040B1F
:10BB40009FED5F0B80ED020B9FED5D0B80ED060B13
:10BB50009FED5B0B80ED080B9FED590B80ED0A0B01
:10BB60009FED570B80ED0C0B704700B5024601208E
:10BB70001070507090700020D0700120907102F110
:10BB80008000FFF7D5FF02F11000FFF79CFF00BD1A
:10BB900010B503460020187000240BE0C4EBC4016C
:10BBA00001EB041203F1080101EBC200FFF7DDFF16
:10BBB000601CC4B2062CF1DB10BD0FB42DED020BDE
:10BBC00030B52DED108B8FB0B0EE40BAF0EE60BA0C
:10BBD000419D409C9DED281BB0EE410AF0EE610AAC
:10BBE0009FED371B53EC112B51EC100B0FF02EFD7A
:10BBF00025D09DED341BB0EE410AF0EE610A9FEDB9
:10BC0000301B53EC112B51EC100B0FF01FFD16D015
:10BC10009DED2C2BB0EE420AF0EE620A9DED2E2B2C
:10BC2000B0EE421AF0EE621A53EC102B51EC110BED
:10BC30000FF00CFD01D1012000E0002030B90120FF
:10BC40000FB0BDEC108B30BC5DF81CFB9DED301BC4
:10BC5000B0EE410AF0EE610A53EC1B2B51EC100BD5
:10BC600010F000F841EC180B9FED150B53EC102B66
:10BC700051EC180B0FF0AEFD0CD39DED341BB0EE64
:10BC8000410AF0EE610A53EC102B51EC180B0FF047
:10BC9000DBFE01D20220D3E79DED2C2BB0EE420A51
:10BCA000F0EE620A9DED2E2BB0EE421AF0EE621A13
:10BCB00053EC102B51EC110B16E000002083B8ED73
:10BCC00000000000000000000AD7A3703D0A973F63
:10BCD00000000000000024402D431CEBE2361A3F18
:10BCE000000000000000E03F0FF0B0FC10D19DED1F
:10BCF0002C0BB0EE40AAF0EE60AA9DED2E0BB0EE3C
:10BD0000409AF0EE609AB0EE48EAF0EE68EA91E010
:10BD10009DED2C2BB0EE420AF0EE620A9DED2E2B2B
:10BD2000B0EE421AF0EE621A53EC102B51EC110BEC
:10BD30000FF098FF41EC1F0B9DED341BB0EE410A54
:10BD4000F0EE610A53EC102B0FF028FB9FEDFE0B79
:10BD500053EC102BCDE908019DED080B51EC100BB5
:10BD60000FF01CFBCDE90A019DED2E0BB0EE409AC1
:10BD7000F0EE609A53EC182B9DED0A0B51EC100B72
:10BD80000FF064FD9FEDF00B53EC102BCDE9080193
:10BD90009DED080B51EC100B0FF058FD41EC1F0B03
:10BDA00053EC192B0FF03EFA41EC1A0B53EC1A2B03
:10BDB00051EC190B0FF056FF53EC1A2BCDE9020191
:10BDC00051EC190B0FF04EFFCDE900019DED020B78
:10BDD00053EC102B9DED000B51EC100B0FF036FDCA
:10BDE0009FEDDB0B53EC102BCDE904019DED040B13
:10BDF00051EC100B0FF0D2FA41EC1F0B53EC182B47
:10BE000051EC180B0FF022FD53EC1F2BCDE906016E
:10BE10009DED060B51EC100B0FF004FA1FED501BBB
:10BE2000CDE908019DED080B0DF0A6FCB0EE40EA4F
:10BE3000F0EE60EA53EC1A2B51EC190B0FF0F2F90B
:10BE400053EC182BCDE908019DED080B51EC100BBC
:10BE50000FF0FCFC41EC1F0B9FEDBB0B53EC102BC8
:10BE60000FF09CFA41EC1D0B9FEDB70B53EC102B20
:10BE700051EC1E0B0FF0EAFC53EC192BCDE9080135
:10BE80009DED080B51EC100B0FF0CCF941EC1F0BA2
:10BE900053EC1F2B51EC1D0B0FF080FA41EC1C0BE7
:10BEA0009FEDAD1BB0EE4C0AF0EE6C0A0DF064FC99
:10BEB0008DED080B9DED281BB0EE410AF0EE610AF6
:10BEC00053EC102B9FEDA61B51EC110B0FF066FAF3
:10BED00041EC1F0B9DED080B53EC102B0FF0B6FC43
:10BEE000CDE90C019DED2A1BB0EE410AF0EE610A8E
:10BEF00053EC102B51EC1C0B0FF0A8FC1FED881B12
:10BF0000CDE908019DED080B0DF036FCB0EE40FACE
:10BF1000F0EE60FA9DED0C0B53EC102B51EC1F0B67
:10BF20000FF094FCC4E9000194ED001BB0EE410A4F
:10BF3000F0EE610A53EC1D2B51EC100B0FF086FC58
:10BF4000C5E9000100207BE60FB42DED020B30B5F2
:10BF50002DED108B8FB0B0EE40BAF0EE60BA419D7F
:10BF6000409C9DED281BB0EE410AF0EE610A1FEDEA
:10BF7000AC1B53EC112B51EC100B0FF067FB06D1EF
:10BF800001200FB0BDEC108B30BC5DF81CFB9DEDAB
:10BF9000360BB0EE408AF0EE608A9DED340B8DEDED
:10BFA000060B9DED301BB0EE410AF0EE610A53EC3A
:10BFB0001B2B51EC100B0FF055FE41EC190B1FED34
:10BFC000C00B53EC102B51EC190B0FF003FC0FD3EB
:10BFD0009DED060B53EC102B51EC190B0FF034FDBB
:10BFE00006D353EC182B51EC190B0FF02DFD01D299
:10BFF0000220C6E79DED361BB0EE410AF0EE610A65
:10C000001FEDD11B53EC112B51EC100B0FF01EFB4D
:10C0100001D10320B5E753EC192B51EC180B0FF0AD
:10C0200021FE41EC1A0B53EC1A2B51EC1A0B0FF0BA
:10C030000DFC53EC182BCDE9020151EC180B0FF05D
:10C0400005FCCDE900019DED020B53EC102B9DED9D
:10C05000000B51EC100B0FF005FE41EC1F0B1FED18
:10C06000E01BB0EE4F0AF0EE6F0A0DF085FB8DED90
:10C07000040B9FED350B53EC102B9DED040B51EC95
:10C08000100B0FF0E3FBCDE9080153EC182B51EC3A
:10C090001A0B0FF083F9CDE904019DED040B0DF0AF
:10C0A0005BF9B0EE40FAF0EE60FA9FED270B53EC2F
:10C0B000102B51EC1F0B0FF0C9FBCDE90A019DEDD0
:10C0C000361BB0EE410AF0EE610A53EC102B9DEDE9
:10C0D0000A1B51EC110B0FF0B9FB41EC1E0B53EC9A
:10C0E0001A2B9DED080B51EC100B0FF0AFFB53EC2E
:10C0F000182BCDE9040151EC1E0B0FF0A7FBCDE985
:10C1000002019DED040B53EC102B9DED020B51EC45
:10C11000100B0FF0A7FD41EC1F0B9FED130B53EC21
:10C12000102B0FF093FB41EC1D0B53EC1E2B51EC2D
:10C130001D0B0FF033F941EC1C0B9FED071BB0EE0C
:10C140004C0AF0EE6C0A13E0000000000000004012
:10C150000000000000001040555555555555C53F8D
:10C16000000000000000F03F000000000000E03F81
:10C170000DF002FB8DED040B9DED281BB0EE410A86
:10C18000F0EE610A53EC102B1FED0B1B51EC110B61
:10C190000FF004F941EC1F0B9DED040B53EC102B39
:10C1A0000FF054FBCDE90C019DED2A1BB0EE410AC6
:10C1B000F0EE610A53EC102B51EC1C0B0FF046FB18
:10C1C0001FED171BCDE904019DED040B0DF0D4FA12
:10C1D000B0EE40FAF0EE60FA9DED0C0B53EC102B34
:10C1E00051EC1F0B0FF032FBC4E9000194ED001B72
:10C1F000B0EE410AF0EE610A53EC1D2B51EC100B2E
:10C200000FF024FBC5E900010020BAE60FB42DEDC4
:10C21000020B30B52DED108B9FB0B0EE40CAF0EEA2
:10C2200060CA519D509C9DED381BB0EE410AF0EE66
:10C23000610A9FEDFE1B53EC112B51EC100B0FF01C
:10C2400005FA06D101201FB0BDEC108B30BC5DF8A3
:10C250001CFB9DED401BB0EE410AF0EE610A53EC71
:10C260001C2B51EC100B0FF0FDFC41EC1A0B9FED59
:10C27000EF0B53EC102B51EC1A0B0FF0ABFA0CD365
:10C280009DED441BB0EE410AF0EE610A53EC102B19
:10C2900051EC1A0B0FF0D8FB01D20220D3E79DED31
:10C2A000489B9FEDE20B53EC102B51EC190B0FF058
:10C2B00091FA01D80320C6E79DED4A8B9FEDDD0B77
:10C2C0000DF04AF88DED100B9FEDDC0B53EC102BAD
:10C2D0009DED100B51EC100B0FF060F853EC182B88
:10C2E000CDE912019DED120B51EC100B0FF0AEFADF
:10C2F000CDE914019DED140B0EF066F88DED160BD3
:10C300001FED690B53EC102B9DED160B51EC100B30
:10C310000FF0D0FB53EC192BCDE918019DED180B54
:10C3200051EC100B0FF092FA41EC1F0B53EC1F2B4A
:10C3300051EC1A0B0FF04EFA0FD8602238A968465C
:10C34000CDE918450BF09BFFB0EE4C0AF0EE6C0AFD
:10C3500034A80FC8FFF7F8FD75E753EC1F2B51EC1D
:10C360001A0B0FF07FFC41EC1B0B9FEDB20B0CF096
:10C37000F3FF8DED080B9FEDB10B53EC102B9DEDF2
:10C38000080B51EC100B0FF009F853EC182BCDE90A
:10C390000A019DED0A0B51EC100B0FF057FACDE995
:10C3A0000C019DED0C0B0EF073F88DED0E0B53ECA4
:10C3B0001B2B9DED0E0B51EC100B0FF047FA9FED70
:10C3C0009D0BCDE912010CF0C7FF8DED060B9FED23
:10C3D0009B0B53EC102B9DED060B51EC100B0EF04C
:10C3E000DDFF53EC182BCDE908019DED080B51EC56
:10C3F000100B0FF02BFACDE90A019DED0A0B0DF0A1
:10C4000057F98DED0E0B53EC192B1FEDB10B51ECC1
:10C41000100B0FF01BFACDE90C019DED0E0B53EC48
:10C42000102B9DED0C0B51EC100B0FF00FFACDE91A
:10C4300010019DED120B53EC102B9DED100B51ECE8
:10C44000100B0EF0EFFE53EC1B2BCDE914019DED0C
:10C45000140B51EC100B0FF0F9F99FED760BCDE9B1
:10C4600018010CF079FF8DED060B9FED740B53EC6A
:10C47000102B9DED060B51EC100B0EF08FFF53ECC3
:10C48000182B1FEDCF0BCDE90A0151EC100B0FF06B
:10C49000DDF9CDE908019DED0A0B53EC102B9DED64
:10C4A000080B51EC100B0FF0D1F9CDE90C019DED0B
:10C4B0000C0B0DF089FF8DED100B9FED620B53EC13
:10C4C000102B51EC180B0EF069FF1FEDDB0B53EC3A
:10C4D000102BCDE908019DED080B51EC100B0FF06E
:10C4E000E9FA9FED540BCDE90C010CF035FF8DED11
:10C4F0000A0B9DED0C0B53EC102B9DED0A0B51EC30
:10C50000100B0FF0A3F9CDE90E019DED100B53ECCC
:10C51000102B9DED0E0B51EC100B0FF0A3FB53EC09
:10C52000192BCDE9140151EC190B0FF08FF91FED08
:10C53000FA0B53EC102BCDE910019DED100B51ECD3
:10C54000100B0EF02BFFCDE912019DED140B53ECF7
:10C55000102B9DED120B51EC100B0FF077F9CDE97C
:10C5600016019DED180B53EC102B9DED160B51ECA5
:10C57000100B0EF057FE41EC1E0B9FED2E0B0CF036
:10C58000EBFE8DED0C0B9FED2D0B53EC102B9DED69
:10C590000C0B51EC100B0EF001FF53EC182BCDE9F6
:10C5A0000E019DED0E0B51EC100B0FF04FF9CDE984
:10C5B00010019DED100B0DF07BF88DED140B53EC7D
:10C5C0001B2B9FED220B51EC100B0FF03FF9CDE927
:10C5D00012019DED140B53EC102B9DED120B51EC41
:10C5E000100B0EF0DBFE9FED170B53EC102BCDE97B
:10C5F000180151EC180B0EF0D1FE9FED160B53EC09
:10C60000102BCDE910019DED100B51EC100B0FF02C
:10C6100051FA9FED080BCDE914010CF09DFE8DED54
:10C62000100B53EC192B9DED100B17E000000000D0
:10C6300000000000000000000000F0BF000000004B
:10C6400000806640000000000080564000000000AE
:10C6500000000040000000000000F03F51EC100B13
:10C660000FF0F4F8CDE912019DED140B53EC102BF3
:10C670009DED120B51EC100B0FF0E8F8CDE916010F
:10C680009DED180B53EC102B9DED160B51EC100B80
:10C690000EF0C8FDCDE91A019DED1A0B53EC102BDD
:10C6A00051EC1E0B0EF07AFE41EC1D0B9FEDFD1BB5
:10C6B000B0EE4D0AF0EE6D0A0DF05EF88DED180B40
:10C6C0009DED381BB0EE410AF0EE610A53EC102BE1
:10C6D0001FED201B51EC110B0EF060FECDE9160191
:10C6E0009DED180B53EC102B9DED160B51EC100B20
:10C6F0000FF0ACF8CDE91C019DED3A1BB0EE410AFC
:10C70000F0EE610A53EC102B51EC1D0B0FF09EF86C
:10C710009FEDE61BCDE916019DED160B0DF02CF8F3
:10C720008DED180B9DED1C0B53EC102B9DED180B94
:10C7300051EC100B0FF08AF8C4E9000194ED001BD6
:10C74000B0EE410AF0EE610A53EC1E2B51EC100BD7
:10C750000FF07CF8C5E90001002074E50FB42DED61
:10C76000020B30B52DED028B9BB0B0EE408AF0EE9F
:10C77000608ADDE93E459DF88800012814D16022D9
:10C7800026A96846CDE918450BF079FDB0EE480AB8
:10C79000F0EE680A22A80FC8FFF70FFA1BB0BDEC35
:10C7A000028B30BC5DF81CFB9DF8880002280FD17D
:10C7B000602226A96846CDE918450BF060FDB0EE71
:10C7C000480AF0EE680A22A80FC8FFF7BDFBE5E7AC
:10C7D0009DF8880003280FD1602226A96846CDE97C
:10C7E00018450BF04CFDB0EE480AF0EE680A22A89E
:10C7F0000FC8FFF70BFDD1E70120CFE70321017040
:10C80000012181700021417001717F21417100215E
:10C810008171C1710121017241F6907141814FF422
:10C82000967181610021C1610162012141758175AB
:10C83000C1700175704710B50346002018700022C2
:10C8400013E002EBC20403F1140101EB8400FFF7D3
:10C85000D5FF02EB8200410002EBC20403F1140099
:10C8600000EB8400C161501CC2B2082AE9DB002041
:10C8700058601881002205E0002103F10A0081546C
:10C88000501CC2B2072AF7DB10BD01220270827071
:10C8900042707822C270002104E00023021D53542C
:10C8A0004A1CD1B20829F8DB70470246002000215B
:10C8B00004E00002535C18444B1CD9B20429F8DB95
:10C8C00000EE100A704713B52DED020B02460B4621
:10C8D0006C46082B02D0012004B010BD002103E0FB
:10C8E000605C5054481CC1B20829F9DB0020F3E712
:10C8F00090ED000B704730B50346080E1446551CEA
:10C90000AAB21855C1F307451046541CA2B21D54D3
:10C91000C1F307251046541CA2B21D541046541CE6
:10C92000A2B21954104630BD01210170002141709E
:10C930008170C17001210171017400228260C260A6
:10C94000704730B50446002040EAC415E8B240EA1A
:10C950008115E8B240EA0215E8B2184330BD2DE96E
:10C96000F0430446894616461D46DDF81C80300C0F
:10C970002070300A6070A67041F2BF30804503D14C
:10C98000E570280A20710FE041F2CD30804508D1D2
:10C990002F463846FEF7F7FF0746E770380A207142
:10C9A00002E0280AE07025710020BDE8F0832DE93F
:10C9B000F04304460D469046994614F8086046FA3E
:10C9C00009F000F00307002F02DC0020BDE8F0832F
:10C9D000072D01D20020F9E7781EC7B206F0CF0676
:10C9E00007FA09F03043C6B204F80860691FE01C7A
:10C9F000FEF722FFA91E60543846E7E7F0B504466B
:10CA0000DDE90676059D002020700A2095FBF0FCEC
:10CA100000FB1C504FF00A0C95FBFCFC40EA0C108C
:10CA200060700A2093FBF0FC00FB1C304FF00A0CF6
:10CA300093FBFCFC40EA0C10A0700A2092FBF0FC77
:10CA400000FB1C204FF00A0C92FBFCFC40EA0C108F
:10CA5000E07026710520F0BD30B503460A20B2FB18
:10CA6000F0F400FB142018700A20B2FBF0F00A2446
:10CA7000B0FBF4F504FB150058706420B2FBF0F035
:10CA8000B0FBF4F504FB150098704FF47A70B2FB1C
:10CA9000F0F0B0FBF4F504FB1500D870042008702A
:10CAA00030BD0000555555555555C53F0000000097
:10CAB0000000E03F2DE9F04F8DB005468946144651
:10CAC0009A4600200C908346002708900990069013
:10CAD0000790FBA0006804900020C9F800002079AE
:10CAE00028B194F88F000C3000F0FF0B04E094F8AC
:10CAF0008F00C01D00F0FF0B8DF811B0002605E07F
:10CB000004A8825D38467F1C2A54761C032EF7DB6E
:10CB10002379E278A1786078FFF713FF0B9039460C
:10CB20007F1C0B986854CDF800A0A389052108A8A4
:10CB3000A268FFF714FF002605E008A8825D3846CA
:10CB40007F1C2A54761C052EF7DBA27B38467F1CFF
:10CB50002A544FF000080AE004F10F0010F80820F2
:10CB600038467F1C2A5408F1010000F0FF0894F8B1
:10CB70008F004045F0DC2079B8B192342079E1781B
:10CB8000A278CDE900210290637814F8922905215A
:10CB900006A8FFF733FF002605E006A8825D3846A9
:10CBA0007F1C2A54761C052EF7DBE81C059059469D
:10CBB0000598FEF741FE0A9039467F1C0A98685492
:10CBC000162238467F1C2A540020E855C9F8007008
:10CBD0000C980DB0BDE8F08F2DE9F84380460D4666
:10CBE0001646994600200090B9EB450F01D8BDE8E4
:10CBF000F8830024002713E018F80720B1A1684645
:10CC00000BF07EF99DF800202046611C8CB2325456
:10CC10009DF801202046611C8CB23254781CC7B2AA
:10CC2000AF42E9D3002030552046E0E72DE9F05F20
:10CC30002DED048B06460C46934600270025D1E0D7
:10CC4000BBF1010F32D1C5EBC50000EB051104F1BA
:10CC5000080000EBC10090ED241BB0EE410AF0EE9D
:10CC6000610A9FED9A1B53EC112B51EC100B0EF047
:10CC7000EDFD9FED980B53EC102B0EF0E7FD0EF041
:10CC800051FD8146C5EBC50000EB051104F108001C
:10CC900000EBC10090ED201BB0EE410AF0EE610AFE
:10CCA00051EC100B0EF03EFD804667E0BBF1020F29
:10CCB00032D1C5EBC50000EB051104F1080000EB13
:10CCC000C10090ED201BB0EE410AF0EE610A51EC7C
:10CCD000100B0EF027FD8146C5EBC50000EB0511DA
:10CCE00004F1080000EBC10090ED241BB0EE410AF6
:10CCF000F0EE610A9FED751B53EC112B51EC100BFC
:10CD00000EF0A4FD9FED730B53EC102B0EF09EFD67
:10CD10000EF008FD804631E0C5EBC50000EB0511C3
:10CD200004F1080000EBC10090ED241BB0EE410AB5
:10CD3000F0EE610A9FED651B53EC112B51EC100BCB
:10CD40000EF084FD9FED630B53EC102B0EF07EFD77
:10CD50000EF0E8FC8146C5EBC50000EB051104F1BF
:10CD6000080000EBC10090ED201BB0EE410AF0EE90
:10CD7000610A51EC100B0EF0D5FC80464FF0000A12
:10CD800012E06420B9FBF0F100FB11931846FEF7A6
:10CD9000CFFD39467A1CD7B270546420B9FBF0F944
:10CDA0000AF1010000F0FF0ABAF1050FE9DB4FF0CC
:10CDB000000A12E06420B8FBF0F100FB1183184672
:10CDC000FEF7B6FD39467A1CD7B270546420B8FB22
:10CDD000F0F80AF1010000F0FF0ABAF1050FE9DBF3
:10CDE000681CC5B22078A8423FF72AAF0022384617
:10CDF000791CCFB2325440223846791CCFB232541B
:10CE00003846791CCFB2325400223846791CCFB252
:10CE100032543846BDEC048BBDE8F09F10B5044693
:10CE2000DDF8D035002010BD2DE9F04FA1B004464B
:10CE30000D4691461E46DDE92AAB84F800B001207C
:10CE400060700020A0700320E07084F804A0706877
:10CE5000A0603089A081C020A073BAF1030F0BD16C
:10CE60000BEBCB0106F1140000EB8100827D4946FB
:10CE700001A8FFF7DBFE8046002084F88F00002722
:10CE80000CE001A8C15D14F88F2F2078401C04F835
:10CE90008F0904F10F008154781CC7B24745F0DBBD
:10CEA000687904F8920FE8796070287AA070687A3F
:10CEB000E07000202071923C21B0BDE8F08F0000AE
:10CEC0006800680025303278000000000000000093
:10CED00000408F40000000000020AC4010B502462A
:10CEE0000020002309E00C88145D44EA0024A0B26D
:10CEF0000C88641C0C805C1CE3B2022BF3DB10BDBD
:10CF000010B502460020002308E00C88145D44EAB6
:10CF100000200C88641C0C805C1CE3B2042BF4DB46
:10CF200010BD30B503460020002408E00D885D5D8B
:10CF300045EA00200D886D1C0D80651CECB2944202
:10CF4000F4DB30BD30B5034600200BE0C0F1010436
:10CF5000E40042FA04F40D885C550C88641C0C80D3
:10CF6000441CE0B20228F1DB30BD30B5034600209E
:10CF70000BE0C0F10304E40022FA04F40D885C55D0
:10CF80000C88641C0C80441CE0B20428F1DB30BD2A
:10CF900010B588B004460121022008F0DFF8012115
:10CFA000880408F024F907220A21FE4807F0C3FE8E
:10CFB00007220B21FB4807F0BEFE4FF440600690AD
:10CFC00002208DF81C008DF81D0000208DF81E0039
:10CFD00001208DF81F0006A9F24807F021FE0294F7
:10CFE0000020ADF80C00ADF80E00ADF81000ADF863
:10CFF00014000C20ADF8120002A9EB4808F069FA01
:10D000000121E94808F0EDFA4021E74808F0D1FB9A
:10D01000012240F22551E44808F099FB27208DF8C1
:10D02000040001208DF8050003208DF80600012082
:10D030008DF8070001A807F002FD08B010BD10B57B
:10D04000024600200CE000BFD74B1B8803F04003D2
:10D05000002BF9D0135CD44C241D2380431C98B2C0
:10D060008842F0DB10BD002004E00021CF4A1154BB
:10D07000411C88B2CE4909888842F6DB0021CC4A9F
:10D080001180704710B54A230C8803550B885B1C30
:10D090000B8053230C8803550B885B1C0B800123EA
:10D0A0000C8803550B885B1C0B80012A0DDB022AC0
:10D0B0000BDC01230C8803550B885B1C0B800B8851
:10D0C000C2540B885B1C0B8009E0032A07DB042A8F
:10D0D00005DC531E0C8803550B885B1C0B8010BDB0
:10D0E00030B5002300BFD45C0D8844550C88641C07
:10D0F0000C801C465D1CABB2145D002CF3D130BD1E
:10D100002DE9F3412DED028B0D46BDF80810481CAA
:10D1100080B20290685CA74908700846007804282D
:10D1200001DD042008700024D6E1BDF80810481C79
:10D1300080B20290695CC4EBC40000EB04129D480D
:10D14000083000F83210BDF80810481C80B2029078
:10D15000695CC4EBC40000EB04129648083000EB95
:10D16000C2004170BDF80810481C80B20290695C92
:10D17000C4EBC40000EB04128E48083000EBC20080
:10D18000817002A92846FFF7A9FE0746C4EBC40038
:10D1900000EB04118748083000EBC1008780BDF820
:10D1A0000810481C80B20290695CC4EBC40000EB1C
:10D1B00004128048083000EBC200817102A92846A1
:10D1C000FFF79EFE064630460EF0F0FA9FED7A0B12
:10D1D00053EC102B0EF0E2F80A460146C4EBC400F3
:10D1E00000EB04137348083000EBC300C0E90612DB
:10D1F00002A92846FFF772FE074638460EF0D6FA17
:10D200009FED6F0B53EC102B0EF0C8F80A46014649
:10D21000C4EBC40000EB04136648083000EBC30005
:10D22000C0E9081202A92846FFF76AFE0646304602
:10D230000EF0BCFA9FED640B53EC102B0EF0AEF821
:10D240000A460146C4EBC40000EB041359480830F9
:10D2500000EBC300C0E90A12BDF80810481C80B2F8
:10D260000290695CC4EBC40000EB04125148083022
:10D2700000EBC20080F87810BDF80810481C80B29E
:10D280000290695CC4EBC40000EB0412494808300A
:10D2900000EBC200017402A92846FFF731FE0646E2
:10D2A00030460EF083FA9FED440B53EC102B0EF03A
:10D2B00075F80A460146C4EBC40000EB04133D4870
:10D2C000083000EBC300C0E9141202A92846FFF79A
:10D2D00017FE064630460EF069FA9FED370B53EC09
:10D2E000102B0EF05BF80A460146C4EBC40000EBBD
:10D2F00004133048083000EBC300C0E90C1202A947
:10D300002846FFF7FDFD064630460EF04FFA9FED2A
:10D310002A0B53EC102B0EF041F80A460146C4EBE1
:10D32000C40000EB04132348083000EBC300C0E93D
:10D330000E1202A92846FFF7E3FD064630460EF01E
:10D3400035FA9FED1D0B53EC102B0EF027F80A4613
:10D350000146C4EBC40000EB04131648083000EB90
:10D36000C300C0E91C1202A92846FFF7C9FD064602
:10D3700030460EF01BFA9FED100B53EC102B0EF005
:10D380000DF80A460146C4EBC40000EB041309483B
:10D39000083000EBC300C0E9161230460EF006FA62
:10D3A00016E000000004024000480040DC110020AC
:10D3B000D2000020A00200200000000000408F40AA
:10D3C000000000000088C34000000000D01263414C
:10D3D0001FED070B53EC102B0DF0E0FF0A46014642
:10D3E000C4EBC40000EB0413FD4800EBC300C0E92C
:10D3F0001812BDF80820511C89B20291A85C0EF0E9
:10D40000D5F90A460146C4EBC40000EB0413F44806
:10D4100000EBC300C0E91A1202A92846FFF770FD0D
:10D42000064630460EF0C2F91FED1D0B53EC102BD3
:10D430000DF0B4FF0A460146C4EBC40000EB041330
:10D44000E74800EBC300C0E91012C4EBC40000EBD6
:10D450000412E34800EBC200A0F84860BDF80810D1
:10D46000481C80B20290685CA0B302A92846FFF76E
:10D4700047FD0646C4EBC40000EB0411D84800EB9E
:10D48000C10090ED200BC4EBC40000EB0411D448A4
:10D4900000EBC10080ED280B30460EF087F90A46FC
:10D4A0000146C4EBC40000EB0413CD4800EBC300FD
:10D4B00040F8801F426030460EF078F90A46014677
:10D4C000C4EBC40000EB0413C54800EBC30080307C
:10D4D000C0E90A12601CC4B2C14808380078A042F2
:10D4E0003FF723AEBDF80800BDEC028BBDE8FC8120
:10D4F0002DE9F7430D461746032269462846FFF7F4
:10D5000010FD8046B748C0F8048069462846FFF7FA
:10D51000E5FC8146B348A0F80890022F0CD1BDF875
:10D520000010481C80B200906C5C012C04D1AE4805
:10D53000007808B107F020F9BDF80010481C80B24F
:10D540000090685CA749087008460078062801DD4D
:10D55000062008700024B7E0BDF80010481C80B217
:10D560000090695C04EBC4029E48143000EB82001A
:10D570008170BDF80010481C80B20090695C04EB1B
:10D58000C4029848143000EB8200C17004EBC4015F
:10D590009448143000EB8100C07801283FD1BDF8D9
:10D5A0000010481C80B20090695C04EBC4028D48F6
:10D5B000143000EB82004171BDF80010481C80B2AD
:10D5C0000090695C04EBC4028648143000EB8200D2
:10D5D0008171BDF80010481C80B20090695C04EBBA
:10D5E000C4028048143000EB8200C171BDF8001005
:10D5F000481C80B20090695C04EBC4027948143086
:10D6000000EB8200017269462846FFF767FC04EBD5
:10D61000C4027449143101EB8201488113E00026F1
:10D620000FE0BDF80010481C80B20090695C04EB6C
:10D63000C4026C48143000EB82000C308155701C21
:10D64000C6B2082EEDDBBDF80010481C80B2009079
:10D65000695C04EBC4026348143000EB820001757E
:10D66000BDF80010481C80B20090695C04EBC40255
:10D670005C48143000EB82004175BDF80010481C76
:10D6800080B20090695C04EBC4025648143000EB91
:10D690008200817569462846FFF720FC04EBC4022E
:10D6A0005049143101EB82018861BDF80010481C1B
:10D6B00080B20090695C04EBC4024A48143000EB6D
:10D6C00082004170601CC4B246480078A0423FF717
:10D6D00043AFBDF80000BDE8FE832DE9F0410646EA
:10D6E0000D4601273046711C8EB2285C3F494870B8
:10D6F000002411E024B9285D012804D0002702E0AD
:10D70000285D00B100273046711C8EB2295C374875
:10D71000001D0155601CC4B2082CEBDB32480078B8
:10D7200010B10FB107F028F83046BDE8F0812DE9BF
:10D73000F04704460E460027B846B946032505F0D3
:10D74000A9F9605D00F0010000B10127605D00F003
:10D75000020008B14FF00108605D00F0040008B15C
:10D760004FF00109681C85B227B121462846FFF712
:10D77000C7FC0546B8F1000F05D0324621462846C1
:10D78000FFF7B6FE0546B9F1000F04D02146284642
:10D79000FFF7A3FF05460220BDE8F08770B50546F8
:10D7A00000244A222146641C6A5453222146641CE8
:10D7B0006A5402222146641C6A5401222146641CD8
:10D7C0006A5421462846FEF753F806462146641C53
:10D7D0006E5432122146641C6A54204670BD00000B
:10D7E000A8020020680100201E0000201809002067
:10D7F00070B5054600244A222146641C6A5453220F
:10D800002146641C6A5402222146641C6A54214643
:10D81000641C6A5421462846FEF72AF8064621462B
:10D82000641C6E5432122146641C6A54204670BD3A
:10D8300030B5A1B0044600202090802168460AF04F
:10D8400050FD0025012220A92046FFF71BFC0221E4
:10D85000BDF88020501C80B22090A1540121BDF859
:10D860008020501C80B22090A154FEA168460AF08E
:10D8700047FB6A4620A92046FFF732FC0221BDF88B
:10D880008020501C80B22090A1540121BDF880203E
:10D89000501C80B22090A154F4A168460AF030FBDD
:10D8A0006A4620A92046FFF71BFC0221BDF8802014
:10D8B000501C80B22090A154EFA168460AF020FBD2
:10D8C0006A4620A92046FFF70BFC0221BDF8802004
:10D8D000501C80B22090A154EBA168460AF010FBC6
:10D8E0006A4620A92046FFF7FBFB0221BDF88020F5
:10D8F000501C80B22090A1540121BDF88020501C02
:10D9000080B22090A154E2A168460AF0F9FA6A4672
:10D9100020A92046FFF7E4FB0221BDF88020501C1F
:10D9200080B22090A154DDA168460AF0E9FA6A4667
:10D9300020A92046FFF7D4FB0121BDF88020501C10
:10D9400080B22090A154BDF88020501C80B220905D
:10D95000A154D6A168460AF0D3FA6A4620A9204607
:10D96000FFF7BEFB0321BDF88020501C80B2209041
:10D97000A1540121BDF88020501C80B22090A154F8
:10D98000CDA168460AF0BCFA6A4620A92046FFF7F6
:10D99000A7FB0221BDF88020501C80B22090A1542A
:10D9A000C8A168460AF0ACFA6A4620A92046FFF7EB
:10D9B00097FB0321BDF88020501C80B22090A15419
:10D9C000C2A168460AF09CFA6A4620A92046FFF7E1
:10D9D00087FBBDF880102046FDF74AFF0546BDF8DD
:10D9E0008020501C80B22090A554290ABDF88020C8
:10D9F000501C80B22090A154BDF8800021B030BDF1
:10DA00002DE9F0412DED048B82B0054600200190F8
:10DA10000026022201A92846FFF734FBAC48017812
:10DA2000BDF80420501C80B20190A954002498E253
:10DA3000C4EBC40000EB0411A548083010F8311005
:10DA4000BDF80420501C80B20190A954C4EBC4005E
:10DA500000EB04119E48083000EBC1004178BDF88E
:10DA60000420501C80B20190A954C4EBC40000EB08
:10DA700004119748083000EBC1008178BDF80420FC
:10DA8000501C80B20190A954C4EBC40000EB0411F7
:10DA90008F48083000EBC1008088010ABDF80420DF
:10DAA000501C80B20190A954C4EBC40000EB0411D7
:10DAB0008748083000EBC1000179BDF80420501CF4
:10DAC00080B20190A954C4EBC40000EB041180485B
:10DAD000083000EBC100C178BDF80420501C80B2B2
